{
  "fileName": "Auth.sol",
  "contractName": "Auth",
  "source": "pragma solidity ^0.5.0;\r\n\r\ncontract Auth {\r\n    address private administrator;\r\n\r\n    constructor () public {\r\n        // Make the deployer of the contract the administrator\r\n        administrator = msg.sender;\r\n    }\r\n\r\n    function isAdministrator(address user) public view returns (bool) {\r\n        return user == administrator;\r\n    }\r\n}",
  "sourcePath": "contracts\\access-control\\Auth.sol",
  "abi": [
    {
      "inputs": [],
      "payable": false,
      "stateMutability": "nonpayable",
      "type": "constructor"
    },
    {
      "constant": true,
      "inputs": [
        {
          "internalType": "address",
          "name": "user",
          "type": "address"
        }
      ],
      "name": "isAdministrator",
      "outputs": [
        {
          "internalType": "bool",
          "name": "",
          "type": "bool"
        }
      ],
      "payable": false,
      "stateMutability": "view",
      "type": "function"
    }
  ],
  "bytecode": "0x608060405234801561001057600080fd5b50336000806101000a81548173ffffffffffffffffffffffffffffffffffffffff021916908373ffffffffffffffffffffffffffffffffffffffff160217905550610114806100606000396000f3fe6080604052348015600f57600080fd5b506004361060285760003560e01c80630a2eb30114602d575b600080fd5b606c60048036036020811015604157600080fd5b81019080803573ffffffffffffffffffffffffffffffffffffffff1690602001909291905050506086565b604051808215151515815260200191505060405180910390f35b60008060009054906101000a900473ffffffffffffffffffffffffffffffffffffffff1673ffffffffffffffffffffffffffffffffffffffff168273ffffffffffffffffffffffffffffffffffffffff1614905091905056fea265627a7a72315820dba0f70bce498952de507508ee6ed8ed99fab059c3a9059a83031f3dda38a20664736f6c63430005110032",
  "compiler": {
    "name": "solc",
    "version": "0.5.17+commit.d19bba13.Emscripten.clang",
    "optimizer": {
      "enabled": false,
      "runs": 200
    },
    "evmVersion": "petersburg"
  }
}