{
  "fileName": "Box.sol",
  "contractName": "Box",
  "source": "pragma solidity ^0.5.0;\r\n// Import Ownable from the OpenZeppelin Contracts library\r\n//import \"@openzeppelin/contracts/ownership/Ownable.sol\";\r\n//import \"./access-control/Auth.sol\"; \r\ncontract Box  {\r\n\r\n\r\n    uint256 private value;\r\n\t// Auth private auth;\r\n    // Emitted when the stored value changes\r\n    event ValueChanged(uint256 newValue);\r\n\r\n    // Stores a new value in the contract\r\n    function store(uint256 newValue) public {\r\n\t //   require(auth.isAdministrator(msg.sender), \"Unauthorized\");\r\n        value = newValue;\r\n        emit ValueChanged(newValue);\r\n    }\r\n\r\n    // Reads the last stored value\r\n    function retrieve() public view returns (uint256) {\r\n        return value;\r\n    }\r\n\t}",
  "sourcePath": "contracts\\Box.sol",
  "abi": [
    {
      "anonymous": false,
      "inputs": [
        {
          "indexed": false,
          "internalType": "uint256",
          "name": "newValue",
          "type": "uint256"
        }
      ],
      "name": "ValueChanged",
      "type": "event"
    },
    {
      "constant": true,
      "inputs": [],
      "name": "retrieve",
      "outputs": [
        {
          "internalType": "uint256",
          "name": "",
          "type": "uint256"
        }
      ],
      "payable": false,
      "stateMutability": "view",
      "type": "function"
    },
    {
      "constant": false,
      "inputs": [
        {
          "internalType": "uint256",
          "name": "newValue",
          "type": "uint256"
        }
      ],
      "name": "store",
      "outputs": [],
      "payable": false,
      "stateMutability": "nonpayable",
      "type": "function"
    }
  ],
  "bytecode": "0x608060405234801561001057600080fd5b5060fd8061001f6000396000f3fe6080604052348015600f57600080fd5b506004361060325760003560e01c80632e64cec11460375780636057361d146053575b600080fd5b603d607e565b6040518082815260200191505060405180910390f35b607c60048036036020811015606757600080fd5b81019080803590602001909291905050506087565b005b60008054905090565b806000819055507f93fe6d397c74fdf1402a8b72e47b68512f0510d7b98a4bc4cbdf6ac7108b3c59816040518082815260200191505060405180910390a15056fea265627a7a723158200ba3fd9ad7703acc0119b9ed558fd155fc0b637e91ccd984603f73511332e29264736f6c63430005110032",
  "compiler": {
    "name": "solc",
    "version": "0.5.17+commit.d19bba13.Emscripten.clang",
    "optimizer": {
      "enabled": false,
      "runs": 200
    },
    "evmVersion": "petersburg"
  }
}