{
  "fileName": "CrowdFunding.sol",
  "contractName": "CrowdFunding",
  "source": "pragma solidity >=0.4.11 <0.7.0;\r\n\r\ncontract CrowdFunding {\r\n \r\n\r\n    struct Campaign {\r\n        uint256 fundingGoal;\r\n        uint256 numFunders;\r\n        uint256 amount;\r\n    \r\n    }\r\n\r\n    uint256 numCampaigns;\r\n    mapping (uint256 => Campaign) campaigns;\r\n\r\n    function newCampaign( uint goal) public  returns (uint campaignID) {\r\n        campaignID = numCampaigns++; // campaignID is return variable\r\n        // Creates new struct in memory and copies it to storage.\r\n        // We leave out the mapping type, because it is not valid in memory.\r\n        // If structs are copied (even from storage to storage),\r\n        // types that are not valid outside of storage (ex. mappings and array of mappings)\r\n        // are always omitted, because they cannot be enumerated.\r\n        campaigns[campaignID] = Campaign( goal, 0, 0);\r\n    }\r\n\r\n    function contribute(uint campaignID) public payable {\r\n        Campaign storage c = campaigns[campaignID];\r\n        // Creates a new temporary memory struct, initialised with the given values\r\n        // and copies it over to storage.\r\n        // Note that you can also use Funder(msg.sender, msg.value) to initialise.\r\n      \r\n        c.amount += msg.value;\r\n    }\r\n\r\n    function checkGoalReached(uint campaignID) public returns (bool reached) {\r\n        Campaign storage c = campaigns[campaignID];\r\n        if (c.amount < c.fundingGoal)\r\n            return false;\r\n        uint256 amount = c.amount;\r\n        c.amount = 0;\r\n      //  c.beneficiary.transfer(amount);\r\n        return true;\r\n    }\r\n\t\r\n\t function retrieve(uint campaignID) public view returns (  uint amount) {\r\n        Campaign storage c=campaigns[campaignID];\r\n\t\treturn c.amount;\r\n    }\r\n\r\n\t \r\n\r\n\r\n \r\n\r\n}",
  "sourcePath": "contracts\\CrowdFunding.sol",
  "abi": [
    {
      "constant": false,
      "inputs": [
        {
          "internalType": "uint256",
          "name": "campaignID",
          "type": "uint256"
        }
      ],
      "name": "checkGoalReached",
      "outputs": [
        {
          "internalType": "bool",
          "name": "reached",
          "type": "bool"
        }
      ],
      "payable": false,
      "stateMutability": "nonpayable",
      "type": "function"
    },
    {
      "constant": false,
      "inputs": [
        {
          "internalType": "uint256",
          "name": "campaignID",
          "type": "uint256"
        }
      ],
      "name": "contribute",
      "outputs": [],
      "payable": true,
      "stateMutability": "payable",
      "type": "function"
    },
    {
      "constant": false,
      "inputs": [
        {
          "internalType": "uint256",
          "name": "goal",
          "type": "uint256"
        }
      ],
      "name": "newCampaign",
      "outputs": [
        {
          "internalType": "uint256",
          "name": "campaignID",
          "type": "uint256"
        }
      ],
      "payable": false,
      "stateMutability": "nonpayable",
      "type": "function"
    },
    {
      "constant": true,
      "inputs": [
        {
          "internalType": "uint256",
          "name": "campaignID",
          "type": "uint256"
        }
      ],
      "name": "retrieve",
      "outputs": [
        {
          "internalType": "uint256",
          "name": "amount",
          "type": "uint256"
        }
      ],
      "payable": false,
      "stateMutability": "view",
      "type": "function"
    }
  ],
  "bytecode": "0x608060405234801561001057600080fd5b506102a5806100206000396000f3fe60806040526004361061003f5760003560e01c80635b2329d4146100445780638f88708b14610097578063c1cbbca7146100e6578063c34b34df14610114575b600080fd5b34801561005057600080fd5b5061007d6004803603602081101561006757600080fd5b8101908080359060200190929190505050610163565b604051808215151515815260200191505060405180910390f35b3480156100a357600080fd5b506100d0600480360360208110156100ba57600080fd5b81019080803590602001909291905050506101b4565b6040518082815260200191505060405180910390f35b610112600480360360208110156100fc57600080fd5b81019080803590602001909291905050506101d9565b005b34801561012057600080fd5b5061014d6004803603602081101561013757600080fd5b8101908080359060200190929190505050610206565b6040518082815260200191505060405180910390f35b6000806001600084815260200190815260200160002090508060000154816002015410156101955760009150506101af565b600081600201549050600082600201819055506001925050505b919050565b6000806001600084815260200190815260200160002090508060020154915050919050565b60006001600083815260200190815260200160002090503481600201600082825401925050819055505050565b600080600081548092919060010191905055905060405180606001604052808381526020016000815260200160008152506001600083815260200190815260200160002060008201518160000155602082015181600101556040820151816002015590505091905056fea265627a7a7231582030fa79b88535eacc285c70580a8867aa484157771890e6d5700dfee1a43435a164736f6c63430005110032",
  "compiler": {
    "name": "solc",
    "version": "0.5.17+commit.d19bba13.Emscripten.clang",
    "optimizer": {
      "enabled": false,
      "runs": 200
    },
    "evmVersion": "petersburg"
  }
}