{
  "fileName": "User.sol",
  "contractName": "OwnedToken",
  "source": "pragma solidity >=0.4.22 <0.6.0;\r\n\r\ncontract OwnedToken {\r\n   struct Part {\r\n   uint pNumber;\r\n   string pName;\r\n   string pDesc;\r\n   string pManuf;\r\n   string[] owners;\r\n}\r\nmapping(uint => Part) public part_store;\r\nuint public partsCount;\r\n  event ValueChanged(uint256 part);\r\nfunction createPart (string memory _pName, string memory _pDesc, string memory _pManuf) public {\r\n        partsCount++;\r\n        part_store[partsCount].pNumber = partsCount;\r\n        part_store[partsCount].pName = _pName;\r\n        part_store[partsCount].pDesc = _pDesc;\r\n        part_store[partsCount].pManuf = _pManuf; \r\n        part_store[partsCount].owners.push(_pManuf);\r\n\t\t emit ValueChanged(partsCount);\r\n        /* Trigger event */\r\n       // emit partCreatedEvent(partsCount);\r\n    }\r\n}",
  "sourcePath": "contracts\\User.sol",
  "abi": [
    {
      "anonymous": false,
      "inputs": [
        {
          "indexed": false,
          "internalType": "uint256",
          "name": "part",
          "type": "uint256"
        }
      ],
      "name": "ValueChanged",
      "type": "event"
    },
    {
      "constant": false,
      "inputs": [
        {
          "internalType": "string",
          "name": "_pName",
          "type": "string"
        },
        {
          "internalType": "string",
          "name": "_pDesc",
          "type": "string"
        },
        {
          "internalType": "string",
          "name": "_pManuf",
          "type": "string"
        }
      ],
      "name": "createPart",
      "outputs": [],
      "payable": false,
      "stateMutability": "nonpayable",
      "type": "function"
    },
    {
      "constant": true,
      "inputs": [
        {
          "internalType": "uint256",
          "name": "",
          "type": "uint256"
        }
      ],
      "name": "part_store",
      "outputs": [
        {
          "internalType": "uint256",
          "name": "pNumber",
          "type": "uint256"
        },
        {
          "internalType": "string",
          "name": "pName",
          "type": "string"
        },
        {
          "internalType": "string",
          "name": "pDesc",
          "type": "string"
        },
        {
          "internalType": "string",
          "name": "pManuf",
          "type": "string"
        }
      ],
      "payable": false,
      "stateMutability": "view",
      "type": "function"
    },
    {
      "constant": true,
      "inputs": [],
      "name": "partsCount",
      "outputs": [
        {
          "internalType": "uint256",
          "name": "",
          "type": "uint256"
        }
      ],
      "payable": false,
      "stateMutability": "view",
      "type": "function"
    }
  ],
  "bytecode": "0x608060405234801561001057600080fd5b506107f1806100206000396000f3fe608060405234801561001057600080fd5b50600436106100415760003560e01c80632a083b1714610046578063ef159763146101cc578063ffc80aae146101ea575b600080fd5b6100726004803603602081101561005c57600080fd5b81019080803590602001909291905050506103d3565b60405180858152602001806020018060200180602001848103845287818151815260200191508051906020019080838360005b838110156100c05780820151818401526020810190506100a5565b50505050905090810190601f1680156100ed5780820380516001836020036101000a031916815260200191505b50848103835286818151815260200191508051906020019080838360005b8381101561012657808201518184015260208101905061010b565b50505050905090810190601f1680156101535780820380516001836020036101000a031916815260200191505b50848103825285818151815260200191508051906020019080838360005b8381101561018c578082015181840152602081019050610171565b50505050905090810190601f1680156101b95780820380516001836020036101000a031916815260200191505b5097505050505050505060405180910390f35b6101d46105cb565b6040518082815260200191505060405180910390f35b6103d16004803603606081101561020057600080fd5b810190808035906020019064010000000081111561021d57600080fd5b82018360208201111561022f57600080fd5b8035906020019184600183028401116401000000008311171561025157600080fd5b91908080601f016020809104026020016040519081016040528093929190818152602001838380828437600081840152601f19601f820116905080830192505050505050509192919290803590602001906401000000008111156102b457600080fd5b8201836020820111156102c657600080fd5b803590602001918460018302840111640100000000831117156102e857600080fd5b91908080601f016020809104026020016040519081016040528093929190818152602001838380828437600081840152601f19601f8201169050808301925050505050505091929192908035906020019064010000000081111561034b57600080fd5b82018360208201111561035d57600080fd5b8035906020019184600183028401116401000000008311171561037f57600080fd5b91908080601f016020809104026020016040519081016040528093929190818152602001838380828437600081840152601f19601f8201169050808301925050505050505091929192905050506105d1565b005b6000602052806000526040600020600091509050806000015490806001018054600181600116156101000203166002900480601f0160208091040260200160405190810160405280929190818152602001828054600181600116156101000203166002900480156104855780601f1061045a57610100808354040283529160200191610485565b820191906000526020600020905b81548152906001019060200180831161046857829003601f168201915b505050505090806002018054600181600116156101000203166002900480601f0160208091040260200160405190810160405280929190818152602001828054600181600116156101000203166002900480156105235780601f106104f857610100808354040283529160200191610523565b820191906000526020600020905b81548152906001019060200180831161050657829003601f168201915b505050505090806003018054600181600116156101000203166002900480601f0160208091040260200160405190810160405280929190818152602001828054600181600116156101000203166002900480156105c15780601f10610596576101008083540402835291602001916105c1565b820191906000526020600020905b8154815290600101906020018083116105a457829003601f168201915b5050505050905084565b60015481565b600160008154809291906001019190505550600154600080600154815260200190815260200160002060000181905550826000806001548152602001908152602001600020600101908051906020019061062c929190610717565b508160008060015481526020019081526020016000206002019080519060200190610658929190610717565b508060008060015481526020019081526020016000206003019080519060200190610684929190610717565b5060008060015481526020019081526020016000206004018190806001815401808255809150509060018203906000526020600020016000909192909190915090805190602001906106d7929190610717565b50507f93fe6d397c74fdf1402a8b72e47b68512f0510d7b98a4bc4cbdf6ac7108b3c596001546040518082815260200191505060405180910390a1505050565b828054600181600116156101000203166002900490600052602060002090601f016020900481019282601f1061075857805160ff1916838001178555610786565b82800160010185558215610786579182015b8281111561078557825182559160200191906001019061076a565b5b5090506107939190610797565b5090565b6107b991905b808211156107b557600081600090555060010161079d565b5090565b9056fea265627a7a7231582082f8ca4c7f7b555d48429b63e96c7f4e25c72d8ef4b2dbcfffb6e68f6aee0f9864736f6c63430005110032",
  "compiler": {
    "name": "solc",
    "version": "0.5.17+commit.d19bba13.Emscripten.clang",
    "optimizer": {
      "enabled": false,
      "runs": 200
    },
    "evmVersion": "petersburg"
  }
}